:100000000C94B3000C94DB000C94DB000C94DB002C
:100010000C94DB000C94DB000C94DB000C94DB00F4
:100020000C94DB000C94DB000C94DB000C94DB00E4
:100030000C94DB000C94DB000C94DB000C94DB00D4
:100040000C94E5060C94DB000C94EE050C94C805AA
:100050000C94DB000C94DB000C94DB000C94DB00B4
:100060000C94DB000C94DB0008000000BE922449D5
:10007000123EABAAAA2ABECDCCCC4C3E00000080DA
:10008000BEABAAAAAA3E00000000BF000000803F4D
:100090000000000000084178D3BB4387D1133D190D
:1000A0000E3CC3BD4282AD2B3E68EC8276BED98F3A
:1000B000E1A93E4C80EFFFBE01C4FF7F3F0000007E
:1000C0000000CDCCCC3D0AD7233C17B7D13877CC34
:1000D0002B329595E6241FB14F0A0000803FCDCC0E
:1000E000CC3D6F12833A95BFD6337D1D9026B3CE9B
:1000F000010C000020410000C84200401C4620BC0A
:10010000BE4CCA1B0E5AAEC59D74000000002300F1
:100110002600290000000000240027002A0000001B
:100120000000250028002B00040404040404040437
:100130000202020202020303030303030102040892
:100140001020408001020408102001020408102041
:100150000000000800020100000304070000000086
:1001600000000000F60911241FBECFEFD8E0DEBF6B
:10017000CDBF11E0A0E0B1E0E2E0FBE102C00590FC
:100180000D92A635B107D9F722E0A6E5B1E001C08E
:100190001D92A830B207E1F710E0C3EBD0E004C035
:1001A0002197FE010E946B0DC23BD107C9F70E9447
:1001B00074070C947F0D0C940000CF92DF92EF92A5
:1001C000FF920F931F93CF93DF936C017A018B0102
:1001D000C0E0D0E0CE15DF0581F0D8016D918D0132
:1001E000D601ED91FC910190F081E02DC6010995B9
:1001F000892B11F02196EECF7E01C701DF91CF91BF
:100200001F910F91FF90EF90DF90CF900895089588
:1002100080E090E00895FC01538D448D252F30E05F
:10022000842F90E0821B930B541710F0CF96089503
:1002300001970895FC01918D828D981761F0828D50
:10024000DF01A80FB11D5D968C91928D9F5F9F730A
:10025000928F90E008958FEF9FEF0895FC01918DAC
:10026000828D981731F0828DE80FF11D858D90E019
:1002700008958FEF9FEF0895FC01918D228D892FB6
:1002800090E0805C9F4F821B91098F73992708959E
:1002900080E691E00E943C0121E0892B09F420E0F6
:1002A000822F0895FC01848DDF01A80FB11DA35A90
:1002B000BF4F2C91848D90E001968F739927848F86
:1002C000A689B7892C93A089B1898C9183708064A9
:1002D0008C93938D848D981306C00288F389E02D4A
:1002E00080818F7D80830895EF92FF920F931F93FB
:1002F000CF93DF93EC0181E0888F9B8D8C8D9813D9
:1003000005C0E889F989808185FD26C0F62E0B8D10
:1003100010E00F5F1F4F0F731127E02E8C8DE81236
:100320000CC00FB607FCFACFE889F989808185FFF8
:10033000F5CFCE010E945201F1CF8B8DFE01E80F67
:10034000F11DE35AFF4FF0829FB7F8940B8FEA89B3
:10035000FB89808180620AC09FB7F894EE89FF898B
:100360006083E889F98980818370806480839FBF7E
:1003700081E090E0DF91CF911F910F91FF90EF907E
:100380000895CF93DF93EC01888D8823C9F0EA8923
:10039000FB89808185FD05C0A889B9898C9186FD7E
:1003A0000FC00FB607FCF5CF808185FFF2CFA8897B
:1003B000B9898C9185FFEDCFCE010E945201E7CF24
:1003C000DF91CF91089580E090E0892B29F00E9481
:1003D000480181110C9400000895CF93DF93EC0144
:1003E00088819981DC01ED91FC910190F081E02DF3
:1003F00009952A813B81820F931F9B838A83DF911A
:10040000CF910895CF93DF93EC0188819981DC012E
:10041000ED91FC910280F381E02D09952A813B81C9
:10042000820F931F9B838A83DF91CF9108958F92D0
:100430009F92AF92BF92CF92DF92EF92FF920F9373
:100440001F93CF93DF93CDB7DEB766970FB6F894BF
:10045000DEBF0FBECDBF6C018E01095E1F4F78015C
:100460008AE0882E912CA12CB12CCB01BA01A501D8
:1004700094010E94630A942F852F605DF8016293B6
:100480008F01A901692F782F41155105610571056B
:1004900061F7A7014E1B5F0BBF01C6010E9402025C
:1004A00066960FB6F894DEBF0FBECDBFDF91CF9139
:1004B0001F910F91FF90EF90DF90CF90BF90AF9082
:1004C0009F908F900895EF92FF920F931F93CF9379
:1004D000DF93EC017B0162E20E94ED018701F801EC
:1004E00061918F01662379F0E2E1F1E0F280FF2073
:1004F000A1F0329681816813F9CF6CE5CE010E949C
:10050000ED016F2D0AC062E2CE01DF91CF911F9104
:100510000F91FF90EF900C94ED01CE010E94ED0140
:10052000DECFFC012581222331F0F8E02F02800D7F
:10053000911D1124089580E090E00895FB01019041
:100540000020E9F73197AF01461B570B0C940202CC
:100550002F923F924F925F926F927F928F929F92D3
:10056000AF92BF92CF92DF92EF92FF920F931F93C1
:10057000CF93DF93CDB7DEB76C970FB6F894DEBF9D
:100580000FBECDBF8C011B01DC0114968C918F77BF
:10059000863009F4B2C068F4823008F4C0C08430F8
:1005A00008F483C0F80160817181C1010E94630277
:1005B000B0C08C30B1F038F4883009F495C08A307E
:1005C00009F47CC0ACC0803209F447C0803409F023
:1005D000A6C06BE5C1010E94ED01D8010D911C91EF
:1005E00034C0F801C080D180E280F380A701960179
:1005F000C701B6010E94010B811191C020E030E0DB
:10060000A901C701B6010E94010B882309F490C01B
:10061000A7019601C701B6010E94950A9B01AC0192
:10062000C701B6010E94010B811182C078C0B101DF
:10063000C8010E94A802C8010E9491028C01892B66
:1006400039F06CE2C1010E94ED010115110579F745
:100650006DE5C1010E94ED0167C06BE7C1010E9419
:10066000ED01D8010D911C9101151105C9F0F8019A
:1006700066817781C1010E9463026AE3C1010E9421
:10068000ED01B101C8010E94A802C8010E949102B7
:100690008C01892B29F06CE2C1010E94ED01E4CFAD
:1006A0006DE7C1010E94ED0134C0F8014281538120
:1006B00060817181C1010E9402022BC0F801C080DB
:1006C000D180E280F380F7FE0CC06DE2C1010E9490
:1006D000ED0144275527BA014C195D096E097F09C0
:1006E00008C0B701A60105C0F801408151816281AF
:1006F0007381C1010E9417020CC0F8018081882318
:1007000019F068E271E002C06DE271E0C1010E947F
:100710009E02D10112968D919C9113979DC163E227
:1007200071E0C1010E949E02F1018281938194C116
:1007300020E030E0A901C701B6010E94010B87FF4C
:1007400008C06DE2C1010E94ED01F7FAF094F7F8DC
:10075000F09420E836E948E15BE4C701B6010E9465
:10076000590C87FD37C0812C912C70E2A72EB12C3B
:10077000188E1F8A84010C5E1F4FF801EE50FF4F48
:100780002591359145915491C701B6010E94590CAC
:1007900087FD13C0F801EE53FF4F25913591459128
:1007A0005491C701B6010E94AE0C6B017C018F8988
:1007B000988D8A0D9B1D988F8F8BB594A79494E08C
:1007C000891A9108A8EE8A16AFEF9A0699F699242D
:1007D0009A9407C040E2A42EB12C55E0952E188EB5
:1007E0001F8A20E030E0A901C701B6010E94590C20
:1007F00018160CF036C02CEA35EC47E257E3C70177
:10080000B6010E94010B181664F1BFEF9B1649F167
:10081000E92DF4E0EF0280011124F801E652FF4FC8
:100820006591759185919491A70196010E94590C4B
:1008300018169CF4F801EE50FF4F25913591459123
:100840005491C701B6010E94AE0C6B017C018F89E7
:10085000988D8A199B09988F8F8BB594A7949A9439
:10086000D4CFC701B6010E94780B4B015C012B016C
:100870003C0106E080E492E4AFE0B0E0898F9A8F1B
:10088000AB8FBC8F102F01509AE0491651046104C0
:100890007104C8F0698D7A8D8B8D9C8D2AE030E0D3
:1008A00040E050E00E94630A298F3A8F4B8F5C8FA3
:1008B000C301B2012AE030E040E050E00E94630A48
:1008C00029013A01DFCFC501B4010E94A70B9B01AA
:1008D000AC01C701B6010E94940A6B017C01698DCD
:1008E0007A8D8B8D9C8D0E94A70B9B01AC01C7015B
:1008F000B6010E94AE0C2B013C010E94780B6B01EB
:100900007C010E94A70B9B01AC01C301B2010E94B4
:10091000940A9B01AC010E94950A0E94780BC60EB6
:10092000D71EE81EF91E898D9A8DAB8DBC8DC81619
:10093000D906EA06FB06F8F09FEF891A990AA90A78
:10094000B90AAF89B88DAB2B99F0BAE08B16910438
:10095000A104B10468F0EF89F88D3196F88FEF8B20
:10096000C12CD12C7601812C912C5401839403C08D
:10097000C12CD12C76019AE0492E512C612C712C7E
:10098000C701B601A30192010E94630A672B682B7D
:10099000692B31F4111624F469017A011150F0CF5A
:1009A000B501A401C1010E941702112339F1012FE1
:1009B0004E01F1E18F0E911C54018AE0482E512C1A
:1009C000612C712C015068F0C701B601A30192019E
:1009D0000E94630A605DD4016E934D0169017A0142
:1009E000F1CFB501611B71098EE2FB018293BF015A
:1009F000A5014E1B5F0BC1010E9402028F89988DD9
:100A0000892B09F491CE65E6C1010E94ED01AF8901
:100A1000B88DB7FF0AC06DE2C1010E94ED018F8958
:100A2000988D91958195910902C08F89988DFE01CD
:100A300077969F010AE010E0B8010E94500D805D9A
:100A40008293CB010097C1F7A9014E1B5F0BBF0139
:100A5000C1010E94020268CE6C960FB6F894DEBF08
:100A60000FBECDBFDF91CF911F910F91FF90EF90FF
:100A7000DF90CF90BF90AF909F908F907F906F90BE
:100A80005F904F903F902F9008950E94710DCF92EC
:100A9000DF92EF92FF920F931F93CF93DF93FC01AE
:100AA0008481982F9F7739F48078806284831182C3
:100AB000108213821282848185FF5FC061157105E7
:100AC00009F45BC08A01EB016F01E080F180E11461
:100AD000F104B9F0D70116966D917C9117976C17B8
:100AE0007D0769F06115710529F0CE010E94760D30
:100AF000892B29F0C7010E9491027C01E8CFC70130
:100B00003EC0D8011496ED91FC91159712968D91E7
:100B10009C9113970896E817F90720F481E018963E
:100B20008C932BC03897D8011596FC93EE931497AD
:100B3000309719F1D60112962D913C9113972115FA
:100B4000310569F0CF01821B930B43E095958795A2
:100B50004A95E1F7D90115968C93D60104C0D601C8
:100B60001196FC93EE931396FC93EE9312971582D5
:100B70001482D783C683CF0102C080E090E0DF916A
:100B8000CF911F910F91FF90EF90DF90CF9008953C
:100B90001F920F920FB60F9211242F933F934F93F2
:100BA0005F936F937F938F939F93AF93BF93EF93D5
:100BB000FF9380E691E00E945201FF91EF91BF9177
:100BC000AF919F918F917F916F915F914F913F91E5
:100BD0002F910F900FBE0F901F9018951F920F929C
:100BE0000FB60F9211242F938F939F93EF93FF9340
:100BF000E0917001F09171018081E0917601F091B6
:100C0000770182FD12C09081809179018F5F8F738F
:100C100020917A01821751F0E0917901F0E0E05AD9
:100C2000FE4F958F8093790101C08081FF91EF91F4
:100C30009F918F912F910F900FBE0F901F9018953D
:100C400090E0FC01E05BFE4F2491FC01E45CFE4F70
:100C50003491FC01E85DFE4FE491EE2309F43CC0C1
:100C6000222339F1233091F038F42130A9F02230D9
:100C700001F584B58F7D12C0273091F02830A1F0A6
:100C80002430B9F4809180008F7D03C08091800072
:100C90008F77809380000DC084B58F7784BD09C0A5
:100CA0008091B0008F7703C08091B0008F7D8093DA
:100CB000B000F0E0EE0FFF1FE25EFE4FA591B49191
:100CC0009FB7F894611104C08C913095382302C00D
:100CD000EC913E2B3C939FBF0895CF93DF9390E020
:100CE000FC01E45CFE4F2491FC01E85DFE4F849121
:100CF000882361F190E0880F991FFC01EC5EFE4FA4
:100D0000C591D491FC01E25EFE4FA591B4916111B1
:100D100009C09FB7F8948881209582238883EC913D
:100D20002E230BC0623061F49FB7F8948881322F74
:100D3000309583238883EC912E2B2C939FBF06C084
:100D40008FB7F894E8812E2B28838FBFDF91CF9146
:100D500008958E3008F08E508770806480937C00F8
:100D600080917A00806480937A0080917A0086FD79
:100D7000FCCF809178002091790090E0922B08952B
:100D80003FB7F8948091040290910502A091060269
:100D9000B091070226B5A89B05C02F3F19F0019618
:100DA000A11DB11D3FBFBA2FA92F982F8827820FF1
:100DB000911DA11DB11DBC01CD0142E0660F771F41
:100DC000881F991F4A95D1F708951F920F920FB669
:100DD0000F9211242F933F938F939F93AF93BF93C1
:100DE0008091000290910102A0910202B091030251
:100DF0003091FF0123E0230F2D3720F40196A11D30
:100E0000B11D05C026E8230F0296A11DB11D209338
:100E1000FF018093000290930102A0930202B0931D
:100E200003028091040290910502A0910602B09104
:100E300007020196A11DB11D809304029093050243
:100E4000A0930602B0930702BF91AF919F918F913B
:100E50003F912F910F900FBE0F901F901895CF923A
:100E6000DF92EF92FF920F931F93E82FF92F05C0A7
:100E7000015011092109310961F1908196239417DC
:100E8000B9F305C0015011092109310911F190810F
:100E900096239413F7CFC12CD12CE12CF12C0AC04E
:100EA0008FEFC81AD80AE80AF80A0C151D052E0596
:100EB0003F0579F080818623841791F36C2D7D2D79
:100EC0008E2D9F2D1F910F91FF90EF90DF90CF906F
:100ED000089560E070E080E090E01F910F91FF9036
:100EE000EF90DF90CF900895CF93DF93CDB7DEB72B
:100EF000C05ED1090FB6F894DEBF0FBECDBF7894A7
:100F000084B5826084BD84B5816084BD85B582600E
:100F100085BD85B5816085BD80916E0081608093BF
:100F20006E00109281008091810082608093810028
:100F30008091810081608093810080918000816038
:100F4000809380008091B10084608093B100809193
:100F5000B00081608093B00080917A0084608093BB
:100F60007A0080917A00826080937A0080917A0082
:100F7000816080937A0080917A00806880937A0003
:100F80001092C100E0917001F091710182E08083C4
:100F9000E0916C01F0916D011082E0916E01F09191
:100FA0006F0180E1808310927801E0917401F091EB
:100FB000750186E08083E0917201F0917301808178
:100FC00080618083E0917201F0917301808188607B
:100FD0008083E0917201F091730180818068808349
:100FE000E0917201F091730180818F7D808361E0D7
:100FF00085E00E946D064E012FE0820E911C5E017D
:1010000087EDA80EB11C20E6222E21E0322E60E0F2
:101010008091FD010E94200683E090E00197F1F7A6
:1010200061E08091FD010E94200683E290E001973B
:10103000F1F760E08091FD010E9420068091FE01A1
:1010400090E0FC01E45CFE4F6491FC01E85DFE4F22
:10105000E491F0E0EE0FFF1FE65FFE4F8591949163
:1010600000E412E42FE030E0462F0E942F076115C4
:1010700071058105910549F0DC01CB010196A11DA7
:10108000B11DBC01CD019F7003C060E070E0CB01D9
:101090002BE330E040E050E00E94630A69017A01EE
:1010A00089018EE00E94A906BC01990F880B990B5B
:1010B0000E94A90B9B01AC0160E070EC8FE794E407
:1010C0000E94060B20E030E040E85FE30E94940AB3
:1010D00020E030E44CE156E40E94AE0C0E94660C25
:1010E0002B013C012CE63FEC48E554E30E94AE0C9A
:1010F000A30192010E94AE0CA30192010E94AE0CCA
:10110000C352DF4F688379838A839B83CD5DD04050
:1011100026ED34E649E759E3C301B2010E94AE0C63
:101120002BEC38E444E85AE30E94950A9B01AC0199
:10113000C352DF4F688179818A819B81CD5DD04028
:101140000E94950A9B01AC0160E070E080E89FE39B
:101150000E94060B23E333E948E853E40E94940A13
:1011600060935A0170935B0180935C0190935D01E1
:101170008FE00E94A90624E630E0DC010E94640DA5
:101180002FEF33E040E050E00E94310ACA01B9017C
:101190000E94A90B609356017093570180935801E8
:1011A00090935901023011053CF096010F31110561
:1011B0002CF02EE130E002C022E030E030935F01FD
:1011C00020935E01C901330FAA0BBB0B9C01AD013B
:1011D0002250310941095109A3E8BFEF0E945E0A7C
:1011E0002CE130E040E050E00E94310A69017A01D0
:1011F000EDE7CE0ED11CE11CF11C61E085E00E9400
:101200006D06C114D10409F43EC0E5E5F1E0E491B6
:10121000E330F9F048F4E130B9F0E230A1F584B5FB
:10122000806284BDC8BC33C0E730E9F0E83019F112
:10123000E43049F580918000806280938000D092F4
:101240008B00C0928A0023C084B5806884BDC7BC6F
:101250001EC080918000806880938000D0928900B9
:10126000C092880014C08091B00080688093B00064
:10127000C092B3000CC08091B00080628093B00037
:10128000C092B40004C060E085E00E9420069A820B
:1012900089829C828B82BE82AD82B886AF8219869B
:1012A0008E8580788E87AE014F5F5F4F63E371E07C
:1012B000CE010A960E944705FC01892B41F09481DA
:1012C00090789460948389E391E091838083AE0168
:1012D0004F5F5F4F62E471E0CE010A960E944705BE
:1012E000FC01892B81F040915A0150915B01609182
:1012F0005C0170915D01948190789C60948340833F
:10130000518362837383AE014F5F5F4F67E471E087
:10131000CE010A960E944705FC01892B81F040917D
:101320005601509157016091580170915901948173
:1013300090789C6094834083518362837383AE0171
:101340004F5F5F4F6DE471E0CE010A960E94470542
:10135000FC01892B81F020915E0130915F01948125
:1013600090789A609483C901330FAA0BBB0B8083DA
:101370009183A283B383F50131822082138212828A
:10138000B501CE010A960E94A80242E050E062E553
:1013900071E080E691E00E94DD000E94C0066B01D2
:1013A0007C018AEF482E512C612C712C0E94C006C2
:1013B000DC01CB018C199D09AE09BF09883E934021
:1013C000A105B10598F3F1E04F1A510861087108C1
:1013D00028EEC20E23E0D21EE11CF11C4114510480
:1013E0006104710419F70E94E30111CEE0E6F1E017
:1013F0001382128288EE93E0A0E0B0E084839583AC
:10140000A683B78384E091E09183808385EC90E0AC
:101410009587848784EC90E09787868780EC90E0BE
:10142000918B808B81EC90E0938B828B82EC90E0AF
:10143000958B848B86EC90E0978B868B118E128E29
:10144000138E148E61E082E00E946D0660E083E0FE
:101450000E946D06EDEFF1E082E0808383E08183FE
:101460000895052E97FB1EF400940E94480A57FD2C
:1014700007D00E94630A07FC03D04EF40C94480A7C
:1014800050954095309521953F4F4F4F5F4F0895B0
:1014900090958095709561957F4F8F4F9F4F0895E0
:1014A0000E94850AA59F900DB49F900DA49F800D6A
:1014B000911D11240895B7FF0C94500A0E94500A00
:1014C000821B930B0895A1E21A2EAA1BBB1BFD01E0
:1014D0000DC0AA1FBB1FEE1FFF1FA217B307E40713
:1014E000F50720F0A21BB30BE40BF50B661F771F6B
:1014F000881F991F1A9469F760957095809590954B
:101500009B01AC01BD01CF010895A29FB001B39F23
:10151000C001A39F700D811D1124911DB29F700DFC
:10152000811D1124911D08955058BB27AA270E94A0
:10153000AC0A0C941F0C0E94110C38F00E94180C7D
:1015400020F039F49F3F19F426F40C940E0C0EF49D
:10155000E095E7FB0C94080CE92F0E94300C58F33F
:10156000BA17620773078407950720F079F4A6F588
:101570000C94520C0EF4E0950B2EBA2FA02D0B01FB
:10158000B90190010C01CA01A0011124FF27591BC8
:1015900099F0593F50F4503E68F11A16F040A22FCE
:1015A000232F342F4427585FF3CF4695379527953F
:1015B000A795F0405395C9F77EF41F16BA0B620B3E
:1015C000730B840BBAF09150A1F0FF0FBB1F661F85
:1015D000771F881FC2F70EC0BA0F621F731F841FC8
:1015E00048F4879577956795B795F7959E3F08F0EE
:1015F000B0CF9395880F08F09927EE0F97958795B0
:1016000008950E94E40B08F481E008950E941A0BEB
:101610000C941F0C0E94180C58F00E94110C40F002
:1016200029F45F3F29F00C94080C51110C94530CD1
:101630000C940E0C0E94300C68F39923B1F35523DF
:1016400091F3951B550BBB27AA27621773078407D5
:1016500038F09F5F5F4F220F331F441FAA1FA9F36B
:1016600035D00E2E3AF0E0E832D091505040E69559
:10167000001CCAF72BD0FE2F29D0660F771F881FBA
:10168000BB1F261737074807AB07B0E809F0BB0BAD
:10169000802DBF01FF2793585F4F3AF09E3F5105C1
:1016A00078F00C94080C0C94530C5F3FE4F3983ED4
:1016B000D4F3869577956795B795F7959F5FC9F7AA
:1016C000880F911D9695879597F90895E1E0660F2B
:1016D000771F881FBB1F621773078407BA0720F0A4
:1016E000621B730B840BBA0BEE1F88F7E09508950D
:1016F0000E94380C88F09F5798F0B92F9927B7515E
:10170000B0F0E1F0660F771F881F991F1AF0BA95A5
:10171000C9F714C0B13091F00E94520CB1E00895A5
:101720000C94520C672F782F8827B85F39F0B93F97
:10173000CCF3869577956795B395D9F73EF4909558
:101740008095709561957F4F8F4F9F4F0895E894D6
:1017500009C097FB3EF490958095709561957F4FF9
:101760008F4F9F4F9923A9F0F92F96E9BB279395A7
:10177000F695879577956795B795F111F8CFFAF4B7
:10178000BB0F11F460FF1BC06F5F7F4F8F4F9F4FE8
:1017900016C0882311F096E911C0772321F09EE846
:1017A000872F762F05C0662371F096E8862F70E0AC
:1017B00060E02AF09A95660F771F881FDAF7880F86
:1017C0009695879597F90895990F0008550FAA0BDC
:1017D000E0E8FEEF16161706E807F907C0F0121644
:1017E0001306E407F50798F0621B730B840B950B47
:1017F00039F40A2661F0232B242B252B21F408959C
:101800000A2609F4A140A6958FEF811D811D089538
:1018100097F99F6780E870E060E008959FEF80ECA3
:10182000089500240A941616170618060906089546
:1018300000240A9412161306140605060895092EAC
:101840000394000C11F4882352F0BB0F40F4BF2B1B
:1018500011F460FF04C06F5F7F4F8F4F9F4F08955B
:1018600057FD9058440F551F59F05F3F71F0479551
:10187000880F97FB991F61F09F3F79F08795089536
:10188000121613061406551FF2CF4695F1DF08C055
:10189000161617061806991FF1CF86957105610572
:1018A00008940895E894BB2766277727CB0197F91A
:1018B00008950E94E40B08F48FEF089516F00C943D
:1018C0001B0D0C940E0C68940C94080C0E94380CA0
:1018D000A8F39923C1F3AEF3DF93CF931F930F9334
:1018E000FF92C92FDD2788232AF02197660F771FE3
:1018F000881FDAF720E030E040E85FEB9FE38839AB
:1019000020F0803E38F021968F770E94950AE8E615
:10191000F0E004C00E94950AE5E9F0E00E94290D7C
:101920008B01BE01EC01FB2E6F5771097595771F76
:10193000880B990B0E94A90B28E132E741E35FE392
:101940000E94C10CAF2D9801AE01FF900F911F9125
:10195000CF91DF910E94AC0A0C941F0C0E94C10C25
:101960000C941F0C0E94110C38F00E94180C20F0EF
:10197000952311F00C94080C0C940E0C11240C946B
:10198000530C0E94300C70F3959FC1F3950F50E0FB
:10199000551F629FF001729FBB27F00DB11D639F21
:1019A000AA27F00DB11DAA1F649F6627B00DA11DC7
:1019B000661F829F2227B00DA11D621F739FB00D6D
:1019C000A11D621F839FA00D611D221F749F3327DD
:1019D000A00D611D231F849F600D211D822F762F76
:1019E0006A2F11249F5750409AF0F1F088234AF053
:1019F000EE0FFF1FBB1F661F771F881F91505040BF
:101A0000A9F79E3F510580F00C94080C0C94530CE0
:101A10005F3FE4F3983ED4F3869577956795B79545
:101A2000F795E7959F5FC1F7FE2B880F911D96955F
:101A3000879597F908959F3F31F0915020F487954D
:101A400077956795B795880F911D9695879597F926
:101A50000895DF93CF931F930F93FF92EF92DF923E
:101A60007B018C01689406C0DA2EEF010E94C10C44
:101A7000FE01E894A5912591359145915591A6F3E4
:101A8000EF010E94AC0AFE019701A801DA9469F700
:101A9000DF90EF90FF900F911F91CF91DF9108950C
:101AA000AA1BBB1B51E107C0AA1FBB1FA617B70784
:101AB00010F0A61BB70B881F991F5A95A9F78095A0
:101AC0009095BC01CD0108950E94850AB7FF089545
:101AD000821B930B0895EE0FFF1F0590F491E02DEC
:101AE000099481E090E0F8940C947F0DFB01DC01F7
:101AF0008D91019080190110D9F3990B0895F894F4
:021B0000FFCF15
:101B0200000000007401DD000B01C1013C011A015B
:101B12002E012F2F22225C5C6208660C6E0A720D67
:101B22007409006E756C6C00747275650066616C88
:101B3200736500746F7069630073656E736F7265AD
:101B4200730074656D700068756D69640064697313
:061B520074000D0A000002
:00000001FF
